:020000040800F2
:10000000B1AA010000000000000000000000000094
:1000100000000000000000000000000000000000E0
:1000200000000000000000000000000000000000D0
:1000300000000000000000000000000000000000C0
:1000400000000000000000000000000000000000B0
:1000500000000000000000000000000000000000A0
:100060000000000000000000000000000000000090
:100070000000000000000000000000000000000080
:100080000000000000000000000000000000000070
:100090000000000000000000000000000000000060
:1000A0000000000000000000000000000000000050
:1000B0000000000000000000000000000000000040
:1000C000342D0008000000000000000000000000C7
:1000D0000000000000000000000000000000000020
:1000E0000000000000000000000000000000000010
:1000F0000000000000000000000000000000000000
:1001000000000000000000000000000000000000EF
:1001100000000000000000000000000000000000DF
:1001200000000000000000000000000000000000CF
:1001300000000000000000000000000000000000BF
:1001400000000000000000000000000000000000AF
:100150000000000000000000000000007370043088
:10016000170500001305C5FF8545F605637BB5003F
:1001700089816378B500170500001305C5002E9529
:1001800002859302002073A0027D970200009382F3
:1001900062E77390723097420000938262DE739040
:1001A000C27E73E0C07E974200009382A2D5739016
:1001B0005230971100189381615A1751001813019A
:1001C00061E4175500001305E511970500189385A4
:1001D00065E3171600181306E6D963FAC5008322F3
:1001E000050023A0550011059105E3EAC5FE17158A
:1001F0000018130525D89385818B6377B5002320DC
:1002000005001105E36DB5FE73F0023217450000DD
:10021000130525EFEF30906BEF30107201458145EB
:10022000EF2040426F30306B01A073E002328280D9
:0802300073F00232828000002D
:1002400000000000000000000000000000000000AE
:100250000000000808080808080800001818000036
:1002600000486C24120000000000000000000000A4
:100270000000002424247F1212127F1212120000A8
:100280000000081C2A2A0A0C1828282A2A1C0808F8
:1002900000000022251515152A5854545422000038
:1002A0000000000C1212120A76252911916E00002E
:1002B000000606040300000000000000000000002B
:1002C00000402010100808080808081010204000FE
:1002D0000002040808101010101010080804020092
:1002E0000000000008086B1C1C6B080800000000E0
:1002F00000000000080808087F080808080000003F
:1003000000000000000000000000000006060403DA
:100310000000000000000000FE00000000000000DF
:1003200000000000000000000000000006060000C1
:100330000000804040202010100808040402020041
:100340000000001824424242424242422418000067
:10035000000000080E08080808080808083E000009
:100360000000003C4242422020100804427E00006F
:100370000000003C4242201820404042221C000065
:10038000000000203028242422227E202078000033
:100390000000007E0202021A26404042221C000099
:1003A000000000382402021A2642424224180000AB
:1003B0000000007E2222101008080808080800002B
:1003C0000000003C4242422418244242423C0000C9
:1003D000000000182442424264584040241C00009F
:1003E00000000000000018180000000018180000AD
:1003F00000000000000000080000000000080804E1
:1004000000000040201008040204081020400000F2
:100410000000000000007F0000007F0000000000DE
:100420000000000204081020402010080402000010
:100430000000003C42424640201010001818000006
:100440000000001C225A555555552D42221C000013
:100450000000000808181414243C224242E700005F
:100460000000001F2222221E22424242221F0000C0
:100470000000007C4242010101010142221C0000F7
:100480000000001F2242424242424242221F00001C
:100490000000003F4212121E12120242423F0000B0
:1004A0000000003F4212121E121202020207000058
:1004B0000000003C2222010101712122221C0000C7
:1004C000000000E7424242427E42424242E70000D0
:1004D0000000003E0808080808080808083E000058
:1004E0000000007C10101010101010101010110FD0
:1004F0000000007722120A0E0A1212222277000050
:10050000000000070202020202020202427F000013
:1005100000000077363636362A2A2A2A2A6B00004F
:10052000000000E346464A4A5252526262470000C7
:100530000000001C2241414141414141221C000078
:100540000000003F424242423E0202020207000017
:100550000000001C2241414141414D53321C6000CA
:100560000000003F4242423E1212222242C70000D7
:100570000000007C4242020418204042423E00003B
:100580000000007F4908080808080808081C000047
:10059000000000E74242424242424242423C0000E6
:1005A000000000E742422224241414180808000026
:1005B0000000006B49494949555536222222000066
:1005C000000000E7422424181818242442E7000001
:1005D000000000772222141408080808081C0000F4
:1005E0000000007E2120101008040442423F000059
:1005F00000780808080808080808080808087800AB
:1006000000000202040408080810102020204040C6
:10061000001E1010101010101010101010101E00DE
:10062000003844000000000000000000000000004E
:10063000000000000000000000000000000000FFBB
:10064000000608000000000000000000000000009C
:10065000000000000000003C4278444242FC0000E0
:10066000000000030202021A26424242261A00003B
:10067000000000000000003844020202443800007C
:1006800000000060404040784442424264D800008C
:10069000000000000000003C427E0202423C0000DC
:1006A000000000F08808087E08080808083E0000DE
:1006B000000000000000007C22221C023C42423C60
:1006C000000000030202023A4642424242E70000B2
:1006D0000000000C0C00000E08080808083E00008E
:1006E0000000003030000038202020202020221E72
:1006F0000000000302020272120A161222770000A2
:100700000000000E0808080808080808083E000055
:10071000000000000000007F9292929292B70000C9
:10072000000000000000003B4642424242E7000059
:10073000000000000000003C42424242423C0000F7
:10074000000000000000001B26424242221E020759
:10075000000000000000007844424242447840E03B
:1007600000000000000000774C040404041F000097
:10077000000000000000007C42023C40423E0000BD
:10078000000000000008083E0808080808300000C3
:1007900000000000000000634242424262DC0000B0
:1007A00000000000000000E74224241408080000B4
:1007B00000000000000000EB4949555522220000CE
:1007C000000000000000007624181818246E0000B5
:1007D00000000000000000E7422424141808080765
:1007E000000000000000007E22100808447E000087
:1007F00000C0202020202010202020202020C00009
:1008000010101010101010101010101010101010E8
:100810000006080808080810080808080808060064
:100820000C32C200000000000000000000000000C8
:1008300053636F72653A0000484947484553542056
:1008400053434F5245000000823A0008B03A000876
:10085000BC3A0008C83A0008D43A0008E03A000858
:10086000EC3A0008F83A0008043B0008103B000886
:100870001900000037000000550000007300000060
:1008800000000000480000000A0000001E000000F8
:100890004E0000000C0000003C0000004200000080
:1008A000050000005A0000004C0000001400000089
:1008B00078000000460000000C000000000000204E
:1008C00020070020180A0020FFFF0000FFFF0000A3
:1008D000FFFF0000FFFF0000FFFF0000FFFF000020
:1008E000FFFF0000FFFF0000FFFF0000FFFF000010
:1008F000FFFF00000000000000000000FFFF0000FC
:10090000FFFF0000FFFF0000FFFF0000FFFF0000EF
:10091000FFFF0000FFFF0000FFFF0000FFFF0000DF
:10092000FFFF0000FFFF0000FFFF0000FFFF0000CF
:10093000FFFF0000FFFF000000000000FFFF0000BD
:10094000FFFF0000FFFF0000FFFF0000FFFF0000AF
:10095000FFFF000000000000FFFF0000FFFF00009D
:10096000FFFF0000FFFF0000FFFF0000FFFF00008F
:10097000FFFF0000FFFF0000FFFF0000FFFF00007F
:10098000FFFF000000000000FFFF0000FFFF00006D
:10099000FFFF0000FFFF0000FFFF0000FFFF00005F
:1009A000FFFF000000000000000000000000000049
:1009B000FFFF0000FFFF0000FFFF0000FFFF00003F
:1009C000FFFF0000FFFF0000FFFF0000FFFF00002F
:1009D0000000000000000000FFFF0000FFFF00001B
:1009E000FFFF0000FFFF0000FFFF0000FFFF00000F
:1009F000FFFF0000FFFF0000FFFF000000000000FD
:100A000000000000FFFF0000FFFF0000FFFF0000EC
:100A100000000000000000000000000000000000D6
:100A200000000000000000000000000000000000C6
:100A300000000000000000000000000000000000B6
:100A400000000000000000000000000000000000A6
:100A50000000000000000000FFFF0000FFFF00009A
:100A6000FFFF0000FFFF0000FFFF0000FFFF00008E
:100A7000FFFF0000FFFF0000FFFF0000FFFF00007E
:100A8000FFFF000000000000000000000000000068
:100A90000000000000000000000000000000000056
:100AA00000000000FFFF0000FFFF0000FFFF00004C
:100AB000FFFF0000FFFF0000FFFF0000FFFF00003E
:100AC000FFFF0000FFFF0000FFFF0000FFFF00002E
:100AD0000000000000000000000000000000000016
:100AE0000000000000000000000000000000000006
:100AF0000000000000000000FFFF0000FFFF0000FA
:100B0000FFFF0000FFFF0000FFFF0000FFFF0000ED
:100B1000FFFF0000FFFF0000FFFF0000FFFF0000DD
:100B20000000000000000000FFFF000000000000C7
:100B300000000000000000000000000000000000B5
:100B40000000000000000000FFFF0000FFFF0000A9
:100B5000FFFF0000FFFF0000FFFF0000FFFF00009D
:100B6000FFFF0000FFFF0000FFFF0000FFFF00008D
:100B70000000000000000000000000000000000075
:100B80000000000000000000000000000000000065
:100B90000000000000000000FFFF0000FFFF000059
:100BA000FFFF0000FFFF0000FFFF0000FFFF00004D
:100BB000FFFF0000FFFF0000FFFF0000FFFF00003D
:100BC0000000000000000000000000000000000025
:100BD0000000000000000000000000000000000015
:100BE0000000000000000000FFFF0000FFFF000009
:100BF000FFFF0000FFFF0000FFFF0000FFFF0000FD
:100C0000FFFF0000FFFF0000FFFF0000FFFF0000EC
:100C100000000000000000000000000000000000D4
:100C200000000000000000000000000000000000C4
:100C30000000000000000000FFFF0000FFFF0000B8
:100C4000FFFF0000FFFF0000FFFF0000FFFF0000AC
:100C5000FFFF0000FFFF0000FFFF0000FFFF00009C
:100C60000000000000000000000000000000000084
:100C700000000000FFFF0000FFFF0000FFFF00007A
:100C8000FFFF0000FFFF0000FFFF0000FFFF00006C
:100C9000FFFF0000FFFF0000FFFF0000FFFF00005C
:100CA000FFFF0000FFFF0000FFFF0000FFFF00004C
:100CB0000000000000000000000000000000000034
:100CC0000000000000000000000000000000000024
:100CD000FFFF0000FFFF000000000000FFFF00001A
:100CE000FFFF0000FFFF0000FFFF0000FFFF00000C
:100CF000FFFF0000FFFF0000FFFF000000000000FA
:100D000000000000000000000000000000000000E3
:100D1000FFFF0000FFFF0000FFFF0000FFFF0000DB
:100D2000FFFF0000FFFF000000000000FFFF0000C9
:100D3000FFFF0000FFFF0000FFFF0000FFFF0000BB
:100D4000FFFF0000FFFF00000000000000000000A7
:100D50000000000000000000000000000000000093
:100D6000FFFF0000FFFF0000FFFF0000FFFF00008B
:100D7000FFFF0000FFFF0000000000000000000077
:100D8000FFFF0000FFFF0000FFFF0000FFFF00006B
:100D90000000000000000000000000000000000053
:100DA0000000000000000000000000000000000043
:100DB0000000000000000000FFFF0000FFFF000037
:100DC000FFFF0000FFFF0000000000000000000027
:100DD00000000000FFFF0000FFFF00000000000017
:100DE0000000000000000000000000000000000003
:100DF00000000000000000000000000000000000F3
:100E0000FFFF000000000000FFFF0000FFFF0000E8
:100E1000FFFF0000FFFF00000000000000000000D6
:100E200000000000000000000000000000000000C2
:100E300000000000000000000000000000000000B2
:100E400000000000000000000000000000000000A2
:100E5000FFFF0000FFFF0000FFFF0000FFFF00009A
:100E6000FFFF0000FFFF0000000000000000000086
:100E70000000000000000000000000000000000072
:100E80000000000000000000000000000000000062
:100E90000000000000000000000000000000000052
:100EA000FFFF0000FFFF0000FFFF0000FFFF00004A
:100EB000FFFF0000FFFF0000FFFF00000000000038
:100EC0000000000000000000000000000000000022
:100ED0000000000000000000000000000000000012
:100EE000000000000000000000000000FFFF000004
:100EF000FFFF0000FFFF0000FFFF0000FFFF0000FA
:100F0000FFFF0000FFFF0000FFFF0000FFFF0000E9
:100F100000000000000000000000000000000000D1
:100F200000000000000000000000000000000000C1
:100F3000000000000000000000000000FFFF0000B3
:100F4000FFFF0000FFFF0000FFFF0000FFFF0000A9
:100F5000FFFF0000FFFF0000FFFF0000FFFF000099
:100F6000FFFF000000000000000000000000000083
:100F70000000000000000000000000000000000071
:100F80000000000000000000FFFF0000FFFF000065
:100F9000FFFF0000FFFF0000FFFF0000FFFF000059
:100FA000FFFF0000FFFF0000FFFF0000FFFF000049
:100FB000FFFF0000FFFF0000000000000000000035
:100FC0000000000000000000000000000000000021
:100FD00000000000FFFF0000FFFF0000FFFF000017
:100FE000FFFF0000FFFF0000FFFF0000FFFF000009
:100FF000FFFF0000FFFF0000FFFF0000FFFF0000F9
:10100000FFFF0000FFFF0000FFFF000000000000E6
:101010000000000000000000FFFF0000FFFF0000D4
:10102000000000000000000000000000FFFF0000C2
:10103000FFFF0000FFFF0000FFFF0000FFFF0000B8
:10104000FFFF0000FFFF0000FFFF0000FFFF0000A8
:10105000FFFF0000FFFF0000FFFF00000000000096
:1010600000000000FFFF0000FFFF0000FFFF000086
:10107000FFFF0000FFFF0000FFFF0000FFFF000078
:10108000FFFF0000FFFF0000FFFF0000FFFF000068
:10109000FFFF0000FFFF0000FFFF0000FFFF000058
:1010A000FFFF0000FFFF0000FFFF00000000000046
:1010B000FFFF0000FFFF0000FFFF0000FFFF000038
:1010C000FFFF0000FFFF0000FFFF0000FFFF000028
:1010D000FFFF0000FFFF0000FFFF0000FFFF000018
:1010E000FFFF0000FFFF0000FFFF0000FFFF000008
:1010F000FFFF0000FFFF0000FFFF0000FFFF0000F8
:10110000FFFF0000FFFF0000FFFF0000FFFF0000E7
:10111000FFFF0000000000000000000000000000D1
:1011200000000000000000000000000000000000BF
:1011300000000000FFFF0000FFFF0000FFFF0000B5
:10114000FFFF0000FFFF0000FFFF0000FFFF0000A7
:10115000FFFF0000FFFF0000FFFF0000FFFF000097
:10116000000000000000000000000000000000007F
:10117000000000000000000000000000000000006F
:101180000000000000000000FFFF0000FFFF000063
:10119000FFFF0000FFFF0000FFFF0000FFFF000057
:1011A000FFFF0000FFFF0000FFFF0000FFFF000047
:1011B0000000000000000000FFFF00000000000031
:1011C000000000000000000000000000000000001F
:1011D0000000000000000000FFFF0000FFFF000013
:1011E000FFFF0000FFFF0000FFFF0000FFFF000007
:1011F000FFFF0000FFFF0000FFFF0000FFFF0000F7
:1012000000000000000000000000000000000000DE
:1012100000000000000000000000000000000000CE
:101220000000000000000000FFFF0000FFFF0000C2
:10123000FFFF0000FFFF0000FFFF0000FFFF0000B6
:10124000FFFF0000FFFF0000FFFF0000FFFF0000A6
:10125000000000000000000000000000000000008E
:10126000000000000000000000000000000000007E
:101270000000000000000000FFFF0000FFFF000072
:10128000FFFF0000FFFF0000FFFF0000FFFF000066
:10129000FFFF0000FFFF0000FFFF0000FFFF000056
:1012A000000000000000000000000000000000003E
:1012B000000000000000000000000000000000002E
:1012C0000000000000000000FFFF0000FFFF000022
:1012D000FFFF0000FFFF0000FFFF0000FFFF000016
:1012E000FFFF0000FFFF0000FFFF0000FFFF000006
:1012F00000000000000000000000000000000000EE
:1013000000000000FFFF0000FFFF0000FFFF0000E3
:10131000FFFF0000FFFF0000FFFF0000FFFF0000D5
:10132000FFFF0000FFFF0000FFFF0000FFFF0000C5
:10133000FFFF0000FFFF0000FFFF0000FFFF0000B5
:10134000000000000000000000000000000000009D
:10135000000000000000000000000000000000008D
:10136000FFFF0000FFFF000000000000FFFF000083
:10137000FFFF0000FFFF0000FFFF0000FFFF000075
:10138000FFFF0000FFFF0000FFFF00000000000063
:10139000000000000000000000000000000000004D
:1013A000FFFF0000FFFF0000FFFF0000FFFF000045
:1013B000FFFF0000FFFF000000000000FFFF000033
:1013C000FFFF0000FFFF0000FFFF0000FFFF000025
:1013D000FFFF0000FFFF0000000000000000000011
:1013E00000000000000000000000000000000000FD
:1013F000FFFF0000FFFF0000FFFF0000FFFF0000F5
:10140000FFFF0000FFFF00000000000000000000E0
:10141000FFFF0000FFFF0000FFFF0000FFFF0000D4
:1014200000000000000000000000000000000000BC
:1014300000000000000000000000000000000000AC
:101440000000000000000000FFFF0000FFFF0000A0
:10145000FFFF0000FFFF0000000000000000000090
:1014600000000000FFFF0000FFFF00000000000080
:10147000000000000000000000000000000000006C
:10148000000000000000000000000000000000005C
:10149000FFFF000000000000FFFF0000FFFF000052
:1014A000FFFF0000FFFF0000000000000000000040
:1014B000000000000000000000000000000000002C
:1014C000000000000000000000000000000000001C
:1014D000000000000000000000000000000000000C
:1014E000FFFF0000FFFF0000FFFF0000FFFF000004
:1014F000FFFF0000FFFF00000000000000000000F0
:1015000000000000000000000000000000000000DB
:1015100000000000000000000000000000000000CB
:1015200000000000000000000000000000000000BB
:10153000FFFF0000FFFF0000FFFF0000FFFF0000B3
:10154000FFFF0000FFFF0000FFFF000000000000A1
:10155000000000000000000000000000000000008B
:10156000000000000000000000000000000000007B
:10157000000000000000000000000000FFFF00006D
:10158000FFFF0000FFFF0000FFFF0000FFFF000063
:10159000FFFF0000FFFF0000FFFF0000FFFF000053
:1015A000000000000000000000000000000000003B
:1015B000000000000000000000000000000000002B
:1015C000000000000000000000000000FFFF00001D
:1015D000FFFF0000FFFF0000FFFF0000FFFF000013
:1015E000FFFF0000FFFF0000FFFF0000FFFF000003
:1015F000FFFF0000000000000000000000000000ED
:1016000000000000000000000000000000000000DA
:101610000000000000000000FFFF0000FFFF0000CE
:10162000FFFF0000FFFF0000FFFF0000FFFF0000C2
:10163000FFFF0000FFFF0000FFFF0000FFFF0000B2
:10164000FFFF0000FFFF000000000000000000009E
:10165000000000000000000000000000000000008A
:1016600000000000FFFF0000FFFF0000FFFF000080
:10167000FFFF0000FFFF0000FFFF0000FFFF000072
:10168000FFFF0000FFFF0000FFFF0000FFFF000062
:10169000FFFF0000FFFF0000FFFF00000000000050
:1016A00000000000FFFF0000FFFF0000000000003E
:1016B00000000000FFFF0000FFFF0000FFFF000030
:1016C000FFFF0000FFFF0000FFFF0000FFFF000022
:1016D000FFFF0000FFFF0000FFFF0000FFFF000012
:1016E000FFFF0000FFFF0000FFFF0000FFFF000002
:1016F0000000000000000000FFFF0000FFFF0000EE
:1017000000000000FFFF0000FFFF0000FFFF0000DF
:10171000FFFF0000FFFF0000FFFF0000FFFF0000D1
:10172000FFFF0000FFFF0000FFFF0000FFFF0000C1
:10173000FFFF0000FFFF0000FFFF0000FFFF0000B1
:10174000FFFF0000FFFF0000FFFF0000FFFF0000A1
:1017500000000000FFFF0000FFFF0000FFFF00008F
:10176000FFFF0000FFFF0000FFFF0000FFFF000081
:10177000FFFF0000FFFF0000FFFF0000FFFF000071
:10178000FFFF0000FFFF0000FFFF0000FFFF000061
:10179000FFFF0000FFFF0000FFFF0000FFFF000051
:1017A000FFFF00000000000000000000000000003B
:1017B0000000000000000000000000000000000029
:1017C00000000000FFFF0000FFFF0000FFFF00001F
:1017D000FFFF0000FFFF0000FFFF0000FFFF000011
:1017E000FFFF0000FFFF0000FFFF0000FFFF000001
:1017F00000000000000000000000000000000000E9
:1018000000000000000000000000000000000000D8
:101810000000000000000000FFFF0000FFFF0000CC
:10182000FFFF0000FFFF0000FFFF0000FFFF0000C0
:10183000FFFF0000FFFF0000FFFF0000FFFF0000B0
:101840000000000000000000FFFF0000000000009A
:101850000000000000000000000000000000000088
:101860000000000000000000FFFF0000FFFF00007C
:10187000FFFF0000FFFF0000FFFF0000FFFF000070
:10188000FFFF0000FFFF0000FFFF0000FFFF000060
:101890000000000000000000000000000000000048
:1018A0000000000000000000000000000000000038
:1018B0000000000000000000FFFF0000FFFF00002C
:1018C000FFFF0000FFFF0000FFFF0000FFFF000020
:1018D000FFFF0000FFFF0000FFFF0000FFFF000010
:1018E00000000000000000000000000000000000F8
:1018F00000000000000000000000000000000000E8
:101900000000000000000000FFFF0000FFFF0000DB
:10191000FFFF0000FFFF0000FFFF0000FFFF0000CF
:10192000FFFF0000FFFF0000FFFF0000FFFF0000BF
:1019300000000000000000000000000000000000A7
:101940000000000000000000000000000000000097
:101950000000000000000000FFFF0000FFFF00008B
:10196000FFFF0000FFFF0000FFFF0000FFFF00007F
:10197000FFFF0000FFFF0000FFFF0000FFFF00006F
:101980000000000000000000000000000000000057
:1019900000000000FFFF0000FFFF0000FFFF00004D
:1019A000FFFF0000FFFF0000FFFF0000FFFF00003F
:1019B000FFFF0000FFFF0000FFFF0000FFFF00002F
:1019C000FFFF0000FFFF0000FFFF0000FFFF00001F
:1019D0000000000000000000000000000000000007
:1019E00000000000000000000000000000000000F7
:1019F000FFFF0000FFFF000000000000FFFF0000ED
:101A0000FFFF0000FFFF0000FFFF0000FFFF0000DE
:101A1000FFFF0000FFFF0000FFFF000000000000CC
:101A200000000000000000000000000000000000B6
:101A3000FFFF0000FFFF0000FFFF0000FFFF0000AE
:101A4000FFFF0000FFFF000000000000FFFF00009C
:101A5000FFFF0000FFFF0000FFFF0000FFFF00008E
:101A6000FFFF0000FFFF000000000000000000007A
:101A70000000000000000000000000000000000066
:101A8000FFFF0000FFFF0000FFFF0000FFFF00005E
:101A9000FFFF0000FFFF000000000000000000004A
:101AA000FFFF0000FFFF0000FFFF0000FFFF00003E
:101AB0000000000000000000000000000000000026
:101AC0000000000000000000000000000000000016
:101AD0000000000000000000FFFF0000FFFF00000A
:101AE000FFFF0000FFFF00000000000000000000FA
:101AF00000000000FFFF0000FFFF000000000000EA
:101B000000000000000000000000000000000000D5
:101B100000000000000000000000000000000000C5
:101B2000FFFF000000000000FFFF0000FFFF0000BB
:101B3000FFFF0000FFFF00000000000000000000A9
:101B40000000000000000000000000000000000095
:101B50000000000000000000000000000000000085
:101B60000000000000000000000000000000000075
:101B7000FFFF0000FFFF0000FFFF0000FFFF00006D
:101B8000FFFF0000FFFF0000000000000000000059
:101B90000000000000000000000000000000000045
:101BA0000000000000000000000000000000000035
:101BB0000000000000000000000000000000000025
:101BC000FFFF0000FFFF0000FFFF0000FFFF00001D
:101BD000FFFF0000FFFF0000FFFF0000000000000B
:101BE00000000000000000000000000000000000F5
:101BF00000000000000000000000000000000000E5
:101C0000000000000000000000000000FFFF0000D6
:101C1000FFFF0000FFFF0000FFFF0000FFFF0000CC
:101C2000FFFF0000FFFF0000FFFF0000FFFF0000BC
:101C300000000000000000000000000000000000A4
:101C40000000000000000000000000000000000094
:101C5000000000000000000000000000FFFF000086
:101C6000FFFF0000FFFF0000FFFF0000FFFF00007C
:101C7000FFFF0000FFFF0000FFFF0000FFFF00006C
:101C8000FFFF000000000000000000000000000056
:101C90000000000000000000000000000000000044
:101CA0000000000000000000FFFF0000FFFF000038
:101CB000FFFF0000FFFF0000FFFF0000FFFF00002C
:101CC000FFFF0000FFFF0000FFFF0000FFFF00001C
:101CD000FFFF0000FFFF0000000000000000000008
:101CE00000000000000000000000000000000000F4
:101CF00000000000FFFF0000FFFF0000FFFF0000EA
:101D0000FFFF0000FFFF0000FFFF0000FFFF0000DB
:101D1000FFFF0000FFFF0000FFFF0000FFFF0000CB
:101D2000FFFF0000FFFF0000FFFF000000000000B9
:101D30000000000000000000FFFF000000000000A5
:101D400000000000FFFF0000FFFF0000FFFF000099
:101D5000FFFF0000FFFF0000FFFF0000FFFF00008B
:101D6000FFFF0000FFFF0000FFFF0000FFFF00007B
:101D7000FFFF0000FFFF0000FFFF00000000000069
:101D800000000000FFFF0000FFFF0000FFFF000059
:101D900000000000FFFF0000FFFF0000FFFF000049
:101DA000FFFF0000FFFF0000FFFF0000FFFF00003B
:101DB000FFFF0000FFFF0000FFFF0000FFFF00002B
:101DC000FFFF0000FFFF0000FFFF00000000000019
:101DD000FFFF0000FFFF0000FFFF0000FFFF00000B
:101DE00000000000FFFF0000FFFF0000FFFF0000F9
:101DF000FFFF0000FFFF0000FFFF0000FFFF0000EB
:101E0000FFFF0000FFFF0000FFFF0000FFFF0000DA
:101E1000FFFF0000FFFF0000FFFF0000FFFF0000CA
:101E2000FFFF0000FFFF0000FFFF0000FFFF0000BA
:101E3000FFFF0000000000000000000000000000A4
:101E40000000000000000000000000000000000092
:101E500000000000FFFF0000FFFF0000FFFF000088
:101E6000FFFF0000FFFF0000FFFF0000FFFF00007A
:101E7000FFFF0000FFFF0000FFFF0000FFFF00006A
:101E80000000000000000000000000000000000052
:101E90000000000000000000000000000000000042
:101EA0000000000000000000FFFF0000FFFF000036
:101EB000FFFF0000FFFF0000FFFF0000FFFF00002A
:101EC000FFFF0000FFFF0000FFFF0000FFFF00001A
:101ED0000000000000000000FFFF00000000000004
:101EE000FFFF0000000000000000000000000000F4
:101EF0000000000000000000FFFF0000FFFF0000E6
:101F0000FFFF0000FFFF0000FFFF0000FFFF0000D9
:101F1000FFFF0000FFFF0000FFFF0000FFFF0000C9
:101F20000000000000000000FFFF000000000000B3
:101F3000FFFF0000000000000000000000000000A3
:101F40000000000000000000FFFF0000FFFF000095
:101F5000FFFF0000FFFF0000FFFF0000FFFF000089
:101F6000FFFF0000FFFF0000FFFF0000FFFF000079
:101F70000000000000000000000000000000000061
:101F80000000000000000000000000000000000051
:101F90000000000000000000FFFF0000FFFF000045
:101FA000FFFF0000FFFF0000FFFF0000FFFF000039
:101FB000FFFF0000FFFF0000FFFF0000FFFF000029
:101FC0000000000000000000000000000000000011
:101FD0000000000000000000000000000000000001
:101FE0000000000000000000FFFF0000FFFF0000F5
:101FF000FFFF0000FFFF0000FFFF0000FFFF0000E9
:10200000FFFF0000FFFF0000FFFF0000FFFF0000D8
:1020100000000000000000000000000000000000C0
:1020200000000000000000000000000000000000B0
:102030000000000000000000FFFF0000FFFF0000A4
:10204000FFFF0000FFFF0000FFFF0000FFFF000098
:10205000FFFF0000FFFF0000FFFF0000FFFF000088
:102060000000000000000000000000000000000070
:102070000000000000000000000000000000000060
:10208000FFFF0000FFFF000000000000FFFF000056
:10209000FFFF0000FFFF0000FFFF0000FFFF000048
:1020A000FFFF0000FFFF0000FFFF00000000000036
:1020B0000000000000000000000000000000000020
:1020C000FFFF0000FFFF0000FFFF0000FFFF000018
:1020D000FFFF0000FFFF000000000000FFFF000006
:1020E000FFFF0000FFFF0000FFFF0000FFFF0000F8
:1020F000FFFF0000FFFF00000000000000000000E4
:1021000000000000000000000000000000000000CF
:10211000FFFF0000FFFF0000FFFF0000FFFF0000C7
:10212000FFFF0000FFFF00000000000000000000B3
:10213000FFFF0000FFFF0000FFFF0000FFFF0000A7
:10214000000000000000000000000000000000008F
:10215000000000000000000000000000000000007F
:10216000000000000000000000000000FFFF000071
:10217000FFFF0000FFFF0000000000000000000063
:1021800000000000FFFF0000FFFF00000000000053
:10219000000000000000000000000000000000003F
:1021A000000000000000000000000000000000002F
:1021B000FFFF0000FFFF0000FFFF0000FFFF000027
:1021C000FFFF0000FFFF0000000000000000000013
:1021D00000000000000000000000000000000000FF
:1021E00000000000000000000000000000000000EF
:1021F00000000000000000000000000000000000DF
:10220000FFFF0000FFFF0000FFFF0000FFFF0000D6
:10221000FFFF0000FFFF00000000000000000000C2
:1022200000000000000000000000000000000000AE
:10223000000000000000000000000000000000009E
:10224000000000000000000000000000000000008E
:10225000FFFF0000FFFF0000FFFF0000FFFF000086
:10226000FFFF0000FFFF0000FFFF00000000000074
:10227000000000000000000000000000000000005E
:10228000000000000000000000000000000000004E
:10229000000000000000000000000000FFFF000040
:1022A000FFFF0000FFFF0000FFFF0000FFFF000036
:1022B000FFFF0000FFFF0000FFFF0000FFFF000026
:1022C000000000000000000000000000000000000E
:1022D00000000000000000000000000000000000FE
:1022E000000000000000000000000000FFFF0000F0
:1022F000FFFF0000FFFF0000FFFF0000FFFF0000E6
:10230000FFFF0000FFFF0000FFFF0000FFFF0000D5
:10231000FFFF0000000000000000000000000000BF
:1023200000000000000000000000000000000000AD
:102330000000000000000000FFFF0000FFFF0000A1
:10234000FFFF0000FFFF0000FFFF0000FFFF000095
:10235000FFFF0000FFFF0000FFFF0000FFFF000085
:10236000FFFF0000FFFF0000000000000000000071
:10237000000000000000000000000000000000005D
:10238000FFFF000000000000FFFF0000FFFF000053
:10239000FFFF0000FFFF0000FFFF0000FFFF000045
:1023A000FFFF0000FFFF0000FFFF0000FFFF000035
:1023B000FFFF0000FFFF0000FFFF00000000000023
:1023C0000000000000000000FFFF0000FFFF000011
:1023D000FFFF000000000000FFFF0000FFFF000003
:1023E000FFFF0000FFFF0000FFFF0000FFFF0000F5
:1023F000FFFF0000FFFF0000FFFF0000FFFF0000E5
:10240000FFFF0000FFFF0000FFFF000000000000D2
:1024100000000000FFFF0000FFFF0000FFFF0000C2
:10242000FFFF000000000000FFFF0000FFFF0000B2
:10243000FFFF0000FFFF0000FFFF0000FFFF0000A4
:10244000FFFF0000FFFF0000FFFF0000FFFF000094
:10245000FFFF0000FFFF0000FFFF00000000000082
:10246000FFFF0000FFFF0000FFFF0000FFFF000074
:10247000FFFF000000000000FFFF0000FFFF000062
:10248000FFFF0000FFFF0000FFFF0000FFFF000054
:10249000FFFF0000FFFF00006E6D690A00000000F2
:1024A000747261700A0000000A50726F6772616D89
:1024B0002068617320657869746564207769746841
:1024C00020636F64653A000030780000F64A000827
:1024D000AA4B0008004B0008AA4B00089C4B0008C0
:1024E000AA4B0008004B0008F64A0008F64A00080C
:1024F0009C4B0008004B0008DC4A0008DC4A00083E
:10250000DC4A0008044B0008DE4F0008DE4F0008DC
:10251000F64F0008D84F0008D84F00088450000834
:10252000F64F0008D84F000884500008D84F000824
:10253000F64F0008D64F0008D64F0008D64F0008C7
:10254000845000080001020203030303040404048E
:10255000040404040505050505050505050505052F
:10256000050505050606060606060606060606060F
:1025700006060606060606060606060606060606FB
:1025800006060606070707070707070707070707DF
:1025900007070707070707070707070707070707CB
:1025A00007070707070707070707070707070707BB
:1025B00007070707070707070707070707070707AB
:1025C000070707070808080808080808080808088F
:1025D000080808080808080808080808080808087B
:1025E000080808080808080808080808080808086B
:1025F000080808080808080808080808080808085B
:10260000080808080808080808080808080808084A
:10261000080808080808080808080808080808083A
:10262000080808080808080808080808080808082A
:10263000080808080808080808080808080808081A
:1026400008080808357106CF22CD26CB41644AC957
:102650004EC752C556C35AC1DEDEEF108051130576
:10266000F4FFEF0070237D14B717002023A887F62E
:10267000EF10605B01E913052003EF108050EF10AD
:10268000805A7DD5EF10205A01E913052003EF1081
:10269000404FEF1040597DD5B71900080149938983
:1026A0000988130AC0031306C003CE854818EF102B
:1026B000B02F794402CA02CC52CE02D0EF10103CA7
:1026C00033658502814A8144194B854B1305050505
:1026D0002AD2EF10B03A3365850215052AD4EF10DF
:1026E000F039D1473365F5021305F5092AD6EF1005
:1026F000F03833658502954702C402C63EC80144DE
:1027000015052AD84810EF1040124808EF007069EC
:1027100056862C0014086800EF00D0484818EF00D7
:102720003059A24A4C085685EF10E00915E533648C
:1027300064035145EF10E044932A3400050493CA22
:102740001A00631374018504CA852685EF1080047E
:10275000E35A99FA26897DB75685EF10A02513050F
:10276000401FEF1000424A85EF1060291305803E9C
:10277000EF102041EF10204B01E913052003EF106B
:102780004040EF10404A7DD541657D15EF00D010E7
:1027900019BF411126C04AC206C4AA842E891385D6
:1027A0000400930509001386340193064900370796
:1027B00001001307F7FFEF00501313850400930582
:1027C000F900138634019306390137070100130716
:1027D000F7FFEF009011138504009305E9011386BC
:1027E000340193062902370701001307F7FFEF00B2
:1027F000D00F1385040093055900138644009306F7
:10280000E900370701001307F7FFEF00100E1385EB
:10281000F40093055900138634019306E900370745
:1028200001001307F7FFEF00500C13850400930518
:102830004901138644009306D901370701001307A5
:10284000F7FFEF00900A1385F40093054901138602
:1028500034019306D901370701001307F7FFEF0092
:10286000D00882441249A24041018280411126C011
:102870004AC206C4AA842E89138504009305090060
:102880001386340193064900370701001307F7FF49
:10289000EF00B005138504009305F9001386340199
:1028A00093063901370701001307F7FFEF00F00324
:1028B000138504009305E901138634019306290268
:1028C000370701001307F7FFEF00300213850400FC
:1028D00093055900138644009306E9003707010069
:1028E0001307F7FFEF0070001385F400930549010B
:1028F000138634019306D901370701001307F7FF48
:10290000EF00A07E82441249A24041018280411121
:1029100026C04AC206C4AA842E89138504009305E2
:102920000900138644009306E900370701001307E6
:10293000F7FFEF00807B138504009305F9001386F1
:10294000E40093063901370701001307F7FFEF0092
:10295000C0791385F40093050900138634019306AA
:102960002902370701001307F7FFEF0000788244C0
:102970001249A24041018280411126C04AC206C4C8
:10298000AA842E8913850400930509001386340157
:1029900093064900370701001307F7FFEF00E074C3
:1029A000138504009305F900138634019306390159
:1029B000370701001307F7FFEF00207313850400AA
:1029C0009305E901138634019306290237070100B4
:1029D0001307F7FFEF00607113850400930559009A
:1029E000138644009306E900370701001307F7FF39
:1029F000EF00A06F1385F40093055900138634018E
:102A00009306E900370701001307F7FFEF00E06DB9
:102A10001385F40093054901138634019306D90107
:102A2000370701001307F7FFEF00206C82441249BB
:102A3000A24041018280411126C04AC206C4AA8434
:102A40002E8913850400930509001386C40093069C
:102A50004900370701001307F7FFEF0000691385EE
:102A60007400930559001386C4009306D9013707F3
:102A700001001307F7FFEF0040671385040093057B
:102A8000E901138634019306290237070100130771
:102A9000F7FFEF00806582441249A2404101828025
:102AA000411126C04AC206C4AA842E891385040097
:102AB000930509001386E4009306490037070100D7
:102AC0001307F7FFEF0060621385F4009305090018
:102AD0001386340193062902370701001307F7FF15
:102AE000EF00A06082441249A2404101828041115E
:102AF00026C04AC206C4AA842E8913850400930501
:102B000009001386340193064900370701001307B3
:102B1000F7FFEF00805D138504009305F90013862D
:102B2000340193063901370701001307F7FFEF005F
:102B3000C05B138504009305E901138634019306F5
:102B40002902370701001307F7FFEF00005A13852A
:102B5000040093055900138644009306E9003707E3
:102B600001001307F7FFEF00405813850400930599
:102B70004901138644009306D90137070100130762
:102B8000F7FFEF0080561385F40093054901138683
:102B900034019306D901370701001307F7FFEF004F
:102BA000C05482441249A24041018280411126C092
:102BB0004AC206C4AA842E8913850400930509001D
:102BC0001386340193064900370701001307F7FF06
:102BD000EF00A051138504009305F900138634011A
:102BE00093063901370701001307F7FFEF00E04FA5
:102BF000138504009305E901138634019306290225
:102C0000370701001307F7FFEF00204E1385F4008C
:102C100093055900138634019306E9003707010034
:102C20001307F7FFEF00604C1385F400930549018B
:102C3000138634019306D901370701001307F7FF04
:102C4000EF00A04A82441249A24041018280411112
:102C500026C04AC206C4AA842E891385040093059F
:102C60000900138634019306490037070100130752
:102C7000F7FFEF008047138504009305F9001386E2
:102C8000340193063901370701001307F7FFEF00FE
:102C9000C045138504009305E901138634019306AA
:102CA0002902370701001307F7FFEF0000441385DF
:102CB000F40093055900138634019306E9003707A1
:102CC00001001307F7FFEF0040421385040093054E
:102CD0004901138644009306D90137070100130701
:102CE000F7FFEF00804082441249A24041018280F8
:102CF000411126C04AC206C4AA842E892685CA85E7
:102D00001386340193062902370701001307F7FFE2
:102D1000EF00A03D13855400930559001386E4008D
:102D20009306D9010147EF00403C82441249A2407A
:102D3000410182808280411122C42A8437150140DA
:102D40009145130505C006C6EF0050798945373512
:102D50000140EF1020027DD9A28537350140EF00F8
:102D6000F07F854537350140EF10C0007DD93735FC
:102D70000140EF00F07E2244B240371501409145FA
:102D8000130505C041016F003075411122C42A842A
:102D900037150140130505C0854506C6EF00D07301
:102DA00022852244B240410179B7411122C42A84CC
:102DB000371501408545130505C006C6EF00D071E3
:102DC000135584001375F50FBD371375F40F2244A6
:102DD000B24041018DB7411122C42A843715014008
:102DE000130505C0854506C6EF00506F22852244B5
:102DF000B240410189B701114EC6AA891305A0024C
:102E000006CE22CC26CA4AC8AE8432893684E1373F
:102E100013851900593F13051900413F1305B002EE
:102E20005D3F1385A40151371305A401BD3F6244E2
:102E3000F240D2444249B2491305C002056161BF64
:102E40003715014079719145130505C006D6EF008D
:102E5000B0684800EF00F06A930740103EC28D470B
:102E60003ECC930700203EC84C00C1473735014097
:102E70003ECE02C402C602CAEF00506A9D453735F5
:102E80000140EF00706E37350140EF00906CB2509A
:102E90004561828041111305206006C622C4EF00FF
:102EA000D06413053060EF00506413050060EF003C
:102EB000D0631305C060EF00506337140140130561
:102EC00004809306000E0D46E145EF00B056130551
:102ED00004C091460D46C145EF00D05595378D464B
:102EE0000D46130504C0C145EF00D054130504C0BE
:102EF0008D45EF00B05E8945130504C0EF00105EFC
:102F00001305800CEF00F0478945130504C0EF005E
:102F1000B05C5145EF00F0464545753D1305400650
:102F2000EF003046130510027D351305100B653593
:102F30001545A13D1305A003893D1305A003B13537
:102F40001305200B493D154589351305A003353D73
:102F50001305A0031D3D1305300BB53D1545353553
:102F60001305A0031D351305A00305351545313D97
:102F70001305A003193D1305A003013D1305400BE4
:102F8000993D0D4519351305000CB1351305200683
:102F9000ED3B0945DD3B1145CD3B1305100C253DAF
:102FA0001305000CDD331305200C35353545F13B99
:102FB0000145E13B1305300C393D1305D008F133D1
:102FC0001305A006D9331305400C31351305D0087D
:102FD0006D3B1305E00E553B1305500CED3B394599
:102FE0006D331305000EC53B414545333945713BF3
:102FF0000945613B0D45513B3945413B1D45713309
:10300000094561331D455133294541334945B53B98
:10301000130570029D3B13057003853B0145B533D5
:103020003545A53339459533414585331305100E94
:103030005D334145993B3945893B0D45B9330D45D4
:10304000A9333D4599331945893309453D3B214510
:103050002D3B29451D3B4D450D3B13056002353386
:10306000130560031D3301450D333545393B3945A3
:10307000293B4145193B1305A003B13B15453133AD
:1030800013056003893B1305800701332244B240D6
:1030900013059002410181B341114AC09306F00427
:1030A0002A891306F0098145014526C206C622C4B5
:1030B0009304000A8933130400054A857D14F53111
:1030C0006DFCFD14EDF8B2402244924402494101E6
:1030D0008280411122C4AE8632842A8606C6213BF4
:1030E00022852244B2404101C9B1011122CC26CA35
:1030F0004AC84EC652C406CE56C22A892E84B28908
:10310000B6843A8ACD3963F28402F2406244D244F2
:103110004249B249224A924A056182805285713100
:10312000850AE3FD59FF0504F9BFCA8ADDBF39717D
:1031300022DC26DA4AD84ED662CC6AC806DE52D4E1
:1031400056D25AD05ECE66CA6EC63304A6402A89CD
:10315000AE893A8DB384B640054C63478000014C7C
:1031600001C4330480407D5C854C63479000814CF2
:1031700081C4B3048040FD5C228A63539400268A94
:10318000014B814A814B930D1A006A86CE854A8590
:10319000A29A8137269B63555A01B38A4A416299A4
:1031A00063556A01330B4B41E699850BE3EFBBFD99
:1031B000F2506254D2544259B259225A925A025B86
:1031C000F24B624CD24C424DB24D2161828093074A
:1031D000000963E2A70C797126D206D622D44AD020
:1031E0004ECE52CC56CA5AC85EC693070004AE846F
:1031F00063EFB70432840114B68A13067500938610
:10320000F5001374F40F37090008AA893A8A1204EA
:10321000DD361309092463970A048149B71B00208E
:10322000414BB3878900CA9783CA0700A14493F72B
:103230001A00528599E303A50BF7FD1493F4F40FDC
:10324000AD3693DA1A00E5F48509E39C69FDB250C6
:10325000225492540259F249624AD24A424BB24B2A
:10326000456182804A94138B0401A14B834A040078
:10327000014993F71A0091C75286A6853385290123
:10328000893D050993DA1A00E31579FF85040504E1
:10329000E39E64FD6DBF8280011152C4416A22CC5D
:1032A00026CA4AC84EC656C25AC006CE2A84AE8422
:1032B0003289B689930A0009130B0004130A0A80A5
:1032C0008347090099EBF2406244D2444249B24933
:1032D000224A924A024B0561828063F48A00C1044B
:1032E000014463769B005285453B8144014403467B
:1032F000090022854E878146A685D13D2104050916
:10330000C1B779714AD01389F6FF22D426D24ECEA6
:1033100052CC56CA5AC85EC662C466C206D6AA89CC
:10332000AE84328A3A8C1374F90F814C014B930AA4
:10333000F00FA94B631F5405B25022549254025906
:10334000F249624AD24A424BB24B224C924C4561FE
:103350008280B38777037D171377F70FE31B57FF3F
:1033600013953C004E95B357FA02B3F7770313F663
:10337000F70F63140B0263D22C0399EF6287814627
:1033800013060002A6857D149935850C1374F40F7D
:1033900055B722878547C1B7054B6287814613061B
:1033A0000603CDB7011122CC26CA4AC84EC606CEA6
:1033B000AA842E84B2893689EF00F00651C91C40D8
:1033C000C1EB99479CC0232009001C409440930501
:1033D00010039D8D63DF06088947B3C6F602416777
:1033E0007D1713062002B386D5403D45FD399C402C
:1033F000094733C7E7021C40BA971CC09C40FD1721
:103400009CC01C4063D607002320040023A00400B6
:103410001C4093051003130620029D8D93864501E1
:103420003D45EFF05F9D0440ADC037140008130424
:1034300084779304046908401104EFF01F97E39C1C
:1034400084FEF2406244D2444249B249056182801E
:10345000EF00607D3DD9032709009147E3C7E7F6F8
:103460009C4089079CC08327090085072320F90019
:10347000A9BF8586B387D5404167938645017D17EF
:1034800013062002938557018DB713040069B38991
:10349000890237140008130484A51309401A4E94B6
:1034A000084085041104EFF05F90E39B24FF51BFB7
:1034B000797152CC416A22D426D24AD056CA5AC80F
:1034C0005EC662C406D64ECEAA842A89130BC503F3
:1034D0002A84814A854B130CF0097D1A1C40C1E7F0
:1034E0001C446355F008F9171CC41C44D1E3310493
:1034F000E31664FF63850A04938704030327C90066
:103500003109232AE9FE03274900232CE9FE03277A
:103510008900232EE9FEE39327FF9307000A9CD836
:10352000EF00D055A1473365F50213056504C8D8EF
:10353000EF00D054B1473365F502150588DC2254FD
:10354000B25092540259F249624AD24A424BB24BAB
:10355000224C0147930660041306F00993056004AA
:1035600001454561E9B6F9171CC041B7854AB5BFA9
:1035700081491C4018444C4033853741BA97014675
:103580006357FC00B936E38479F78549DDB7EFF07E
:103590005FB408401C444C4052863E95330535418B
:1035A000D5B75D715AD85ED662D466D2930705014D
:1035B000375B0008B75B0008375C0008B71C0008E1
:1035C000A6C252DC6AD086C6A2C4CAC04EDE56DA93
:1035D0006ECEAA842A8D3EC0014A130BCB2C938B4E
:1035E0000B2D130C4C2D938CCC8B83274D006381BA
:1035F000071AFD1709476363F7023307FB008309C6
:1036000007003387FB0003090700139717008A0799
:103610006297E697831D070083AA070003250D0024
:103620009307E0094A9563D4A7001305E009130640
:1036300015009307F00963ECC70041679305600428
:103640007D1793066004B3853541EFF01FAA03266A
:103650000D00B307204163DDC712328563530600B6
:1036600001454A969307000A63D4C7001306000A6F
:103670001304F6FF93055004930650042286B38585
:1036800035412AC2EFF02FF783270D00124563D78B
:10369000070A098C0504B38689020147330689406D
:1036A0006349D70683270D00F9172320FD008247C1
:1036B000210DE39CA7F3630F0A0298449307F004DB
:1036C00063CAE702EF00903B930740063365F502BB
:1036D0009307E00563D0A7029C449CC0DC44DCC097
:1036E0009307F0099CC4EF0070398D473365F502EC
:1036F0000505C8C4B640264496440649F259625AA4
:10370000D25A425BB25B225C925C025DF24D616117
:103710008280B347870236C63AC432C2B365870295
:10372000B3872703AE97B2978A07D6978843EFF0FF
:10373000CFE72247B246124605079DB7CA9713073F
:10374000F0096355F704098C0504B3868902014723
:10375000E35AD7F436C43AC2B347870233668702C6
:10376000B3872703B2978A07D6978843EFF0EFE332
:103770001247A2460507E9BF93172400D69788434E
:103780000504EFF08FE2E349B4FF29BF0144E5BF30
:10379000054A31BF41113716000822C481462A84E8
:1037A0001306068389451305400606C6EFF0DFAE13
:1037B00022862244B24001479146C945130580073D
:1037C00041016FF01FB437570008B7560008930E39
:1037D0002500138805010943394E3105130F2002D6
:1037E000F14F1307C72C9386062DDC4185CBFD17BF
:1037F0006369F3003386E700B69703060600838803
:1038000007009C41B3821701635A5E0063D4CE0067
:1038100063DBFF006354C5006357FF00A105E39617
:1038200005FD01458280054582805D71CAC05AD878
:103830004169371B0008A6C24EDE52DC56DA5ED65E
:1038400062D466D286C6A2C46AD06ECEAA84AA8C7E
:10385000130C0501014A930AF0097D19930B8B8C17
:10386000D14903A60C00510663D4CA001306F0091F
:1038700063EACA0083A54C004A87328593864500D7
:10388000EFF0BF8603A60C00B5576343F612328DE6
:1038900063530600014D51069307000A63D4C70025
:1038A0001306000A83A54C001304F6FF22869386B4
:1038B00045006A85EFF02FD483A70C0063D4070A74
:1038C0003304A4410504954DB30DB403014D338772
:1038D00089406348BD0783A70C00FD1723A0FC00A7
:1038E000A10CE3908CF9630F0A0298449307F0044B
:1038F00063CAE702EF009018930740063365F502AC
:103900009307E00563D0A7029C449CC0DC44DCC064
:103910009307F0099CC4EF007016F9473365F50270
:103920001505C8C4B640264496440649F259625A61
:10393000D25A425BB25B225C925C025DF24D6161E5
:103940008280B3478D023AC6B3668D02050DB387F8
:103950003703B697BA978A07DE978843EFF0EFC42C
:10396000324785BF1307B0086359F7023304A441F7
:103970000504954DB30DB403014DE35EBDF5B347AA
:103980008D0233678D02050DB3873703BA978A0717
:10399000DE978843EFF06FC1CDB713048B8C130D06
:1039A000041908401104EFF04FC0E31C8DFE25B749
:1039B000054A3DB793051003898D41119386450152
:1039C000130620023D4522C426C206C6EFF0AFC250
:1039D000B7140008896737240008938484A5938767
:1039E00007A4130484E0BE9408401104EFF0EFBB79
:1039F000E31C94FEB240224492444101828039711A
:103A0000B715000822DC41462A84938505870808FB
:103A100006DE26DA4AD84ED6EF0000799307803EBC
:103A2000B347F402130580C11307C0F9B7140008A7
:103A3000A5499384848441493EC0B387A702338556
:103A4000870093074006B347F50201443EC2B3879F
:103A5000E70259573E95A947B347F5023EC4B387DD
:103A6000E7023E952AC60145EFF00FE3B307810058
:103A70009C4363EDF9008A07A6979C4393053002A7
:103A800082871C08A2978843EFF08FA61104E31FDA
:103A900024FD6254F250D2544259B25937160008EC
:103AA000814613068683A945794521616FF0CFFED3
:103AB0001C08A2978843EFE01FF8C9BF1C08A29713
:103AC0008843EFF0CF98D9B71C08A2978843EFF04E
:103AD000EF8D6DBF1C08A2978843EFE05FE37DB7D1
:103AE0001C08A2978843EFE07FD84DB71C08A29727
:103AF0008843EFE0DFFF59BF1C08A2978843EFE03F
:103B00003FFA69B71C08A2978843EFE09FC8BDBF82
:103B10001C08A2978843EFE03FE68DBF37150140B0
:103B2000930600100D4691451305058021A2411111
:103B30001305206006C6552A371501408D460D46EF
:103B4000814513050580FD20371702405C43B78689
:103B5000001013059060D58F5CC3412A37270140C0
:103B600083278740B24093E717002324F7404101A1
:103B70008280411106C65D375D3FB24041016FF062
:103B80006FB179714AD04ECE5AC806D622D426D209
:103B900052CC56CA5EC662C466C22A8BFD2CAA8964
:103BA0002E89E52CAA842E846394A900E30BB9FE28
:103BB000B717002003A987F683A9C7F6B71B002013
:103BC000E92CAA87058DB3B7A700818D9D8DEF10D5
:103BD0004052AA8A03A58BF52E8AEF10A04C4A8684
:103BE000CE86EF009029AA8C5A852E8CEF10804B40
:103BF0002A86AE866685E285EF10C0062A86AE86E6
:103C00005685D285EF00B07BE34C05FAB2502254C2
:103C100092540259F249624AD24A424BB24B224C68
:103C2000924C4561828037150140930500101305C1
:103C300005807DA093F7050193F8F50099C3B3E8DB
:103C4000C8008147054EBD4E130F8002930F8004BC
:103C500021433316FE00758E1DC213972700832261
:103C600005003398EE001348F8FF33785800339777
:103C7000E800336707016399E50550C918C1850756
:103C8000E39967FC054EBD4E130F8002930F80042D
:103C900041433316FE00758E05C6139727000117A2
:103CA000832245003398EE001348F8FF337858001C
:103CB0003397E80033670701639CE50150C958C199
:103CC0008507E39867FC8280E39AF5FB10C97DB70E
:103CD000E397F5FF10C9E5B70CC982804CC9828013
:103CE00008456D8D3335A000828013576500B717E6
:103CF00002403E97144385473395A700558D08C36E
:103D0000828023200500232205002324050023268A
:103D10000500232A0500232C050082801C410D6725
:103D200013070704D4417D8F9C41D58F9445D58FCF
:103D3000D445D58F9449D58FD449D58F944DD58FFF
:103D4000D98F1CC15C4D7D771307F77FF98F5CCD50
:103D500082801C4193E707041CC182804CC582808D
:103D600048454205418182801C410967D98F1CC1A9
:103D70000CC9828008456D8D3335A0008280B7174D
:103D800002409843B706FFE0B1061367170098C3D7
:103D9000D843758FD8C39843B706F7FEFD16758FC5
:103DA00098C39843B706FCFFFD16758F98C3D84398
:103DB000B70601DFFD16758FD8C323A60702984307
:103DC000B706F7EAFD16758F98C33707FF0098C747
:103DD00094434167D98E94C39307F7FF3717024086
:103DE00014431396E60063440600FD17F5FBB7176E
:103DF000024098439316E70063C3060001A0D8432E
:103E0000B706C4DFFD16D8C3D843D8C3D843136759
:103E10000740D8C3D843758FD8C3D843B7062920E5
:103E2000558FD8C3D857BD76758FD8D7D857C166A8
:103E3000938616F1558FD8D79843B7060004558F4F
:103E400098C3B7170240984393164700E3DD06FE78
:103E50009843B7060010558F98C3B7170240984390
:103E600093162700E3DD06FE9843B7060001558F41
:103E700098C3B7170240984393166700E3DD06FE28
:103E8000D843719BD8C3D84313672700D8C33717CB
:103E900002405C43A18BF5DF8280B70700D1D84395
:103EA0008843CC43E39DE5FE8280B70700D22380A0
:103EB0000700A385070093174500371500D23E95EC
:103EC000B71700D263E3A700828023A00700C107D1
:103ED000D5BFF327503093F707FC93E73700739073
:103EE0005730828000000000000000000000000049
:103EF00000000000000000000000000000000000C2
:103F00005D7106C012C216C41AC61EC82ACA2ECCBB
:103F100032CE36D03AD23ED442D646D872DA76DCA9
:103F20007ADEFEC0F322103496C0F322003096C22F
:103F3000F322407C96C4732520348A85E120864292
:103F400073901234964273900230A6427390427C72
:103F500082401242A2423243C2435245E245724677
:103F600082561257A2573258C258525EE25E725FB2
:103F7000864F616173002030000000005D7106C053
:103F800012C216C41AC61EC82ACA2ECC32CE36D0C9
:103F90003AD23ED442D646D872DA76DC7ADEFEC019
:103FA00073D0E87E7350F97E73D0B97EF390D07EE3
:103FB00073700430B6427390427CA6427390123400
:103FC00096427390223482401242A2423243C2434C
:103FD0005245E245724682561257A2573258C2588D
:103FE000525EE25E725F864F616173002030B725DA
:103FF00000084111154693858549054506C61926D1
:1040000005451D204111856722C406C6FD172A8477
:104010006313F500E93FB725000815469385054A67
:104020000545CD24228509207971B725000822D4C1
:104030007D462A849385854A0A8506D6B522794627
:104040008A850945C124A28509450928B7250008A4
:1040500005469385454A0945752401A079714AD0E2
:104060002E89B725000809469385854C22D426D28F
:104070004ECE52CC56CA06D6AA84714461243D4A1B
:10408000A54AF159B3178A00B3F72701B3D78700C0
:1040900093F7F70F63E9FA0293870703E207E187D3
:1040A00005469305F10026857114A307F100992CAC
:1040B000E31A34FDB250225492540259F249624A32
:1040C000D24A4561828093877703C9BFAA8581461A
:1040D00001460145BDA44111B747000822C406C6E8
:1040E0009387A73C2A8499C38145C524B757000804
:1040F00003A5C72D1C5591C38297228535374111E1
:10410000B757000822C4375400081387072E13043A
:10411000042E198C26C206C609849384072E11E446
:104120002244B2409244410179A97D14931724009E
:10413000A6979C438297E5B74111B757000822C460
:10414000375400081387072E1304042E198C26C237
:104150004AC006C6098481441389072E63988402E5
:10416000A921B7570008375400081387072E1304F6
:10417000042E198C098481441389072E639F8400BF
:10418000B240224492440249410182809397240024
:10419000CA979C4385048297D1B793972400CA9706
:1041A0009C4385048297D9BFB3C7A5008D8BB30606
:1041B000C50081E78D4763EEC700AA876378D50AFB
:1041C00003C7050085078505A38FE7FEE3EAD7FE51
:1041D000828013773500AA8711CB03C705008507B6
:1041E0008505A38FE7FE13F73700FDB713F7C6FF6A
:1041F000130607FE63FBC70483A3050083A24500E3
:1042000083AF850003AFC50083AE050103AE450152
:1042100003A3850183A8C50123A0770023A257002B
:1042200003A8050223A4F70123A6E70123A8D701C9
:1042300023AAC70123AC670023AE1701938545026B
:104240009387470223AE07FF75B72E883E866360CB
:10425000E6021388D7FF0146636607010D071D8F2D
:104260001376C7FFB297B295E3ECD7F48280832828
:10427000080011061108232E16FFD1BF4111B717F0
:10428000002022C403A4C7F506C61C5C95EB61455B
:104290001924B737CDAB08DC9387E7301CC1B717BB
:1042A0006DE6938747235CC1B7E705009387C7EEA8
:1042B0001CC5AD472316F5000547814718C95CC9E1
:1042C000105C3787954CB7F75158144A484A130782
:1042D000D7F29387D742B387F602B2402244330520
:1042E000E5023E95B387E60233B7E60293861700F0
:1042F00014CA2A9733B5F6003A9548CA06050581CF
:1043000041018280B7170020B2862E86AA8503A5B8
:10431000C7F509A0411122C426C22A842E85B28580
:10432000368606C623AA018ADD2CFD576316F500E2
:1043300083A7418B91C31CC0B240224492444101E7
:10434000828037180020832748F7AA888DE737171F
:104350000020130507F8232AA8F6370800001303E6
:104360000800930707F86308030083270800232445
:10437000F508930707F8D8437D487D556346E80460
:10438000638D080203A8870863000804131527003B
:10439000429510C10323081005463316E600336327
:1043A000C300232068102320D50889466397D800CE
:1043B00083264810558E2322C810930617000A073B
:1043C000D4C3BA978CC701458280797152CC56CA42
:1043D0005AC862C406D622D426D24AD04ECE5EC671
:1043E00066C2AA8A2E8A371B0020054C03244BF78D
:1043F000930B4BF711C84440832984081389F4FFB9
:104400008A04A294635F0900B25022549254025964
:10441000F249624AD24A424BB24B224C924C45611D
:104420008280630E0A00639509007D19F114D9BFDB
:1044300093172900CE9783A70708E39847FF5840B2
:10444000DC407D176318270323222401F9DF832C26
:1044500044006388090083A6091033172C01F98EE4
:1044600089EE8297584083A70B00E31197F9E30E7A
:10447000F4FAADBF23A20400D1BF93162900CE9653
:104480008C4283A64910758F01E756858297D9BF64
:104490002E858297C1BFB7170020AA8503A5C7F54F
:1044A00009A0011126CA93843500F1984AC806CEA6
:1044B00022CC4EC6A104B1472A8963F5F404B14465
:1044C00063E4B4044A85C520B717002003A787F723
:1044D000938687F73A8421E4371400201304C4F745
:1044E0001C4089E781454A85512808C0A6854A8530
:1044F0007120FD5963183507B1472320F9004A851B
:10450000652031A0E3DE04FAB1472320F90001451C
:10451000F2406244D2444249B249056182801C4063
:10452000858F63CE07022D466376F6001CC03E944D
:1045300004C029A05C40631287029CC24A85AD205A
:104540001305B4009307440061993307F540E30174
:10455000F5FC3A94898F1CC065BF5CC3C5B7228740
:10456000404095BF130435007198E30385FCB30503
:10457000A4404A852120E31D35FBBDBF411122C463
:1045800026C22A842E8506C623AA018A3528FD570D
:104590006316F50083A7418B91C31CC0B24022442F
:1045A00092444101828082808280411106C6EFF0F0
:1045B0000FFD13057005EFF05F8FEFF09F91B24094
:1045C00041016FB09FC6828013878180AA8708430C
:1045D0009386818BAA9763EAD700B756002093860B
:1045E000068063E4F6001CC382807D558280411101
:1045F00026C2B744014022C49375F50F2A8413855F
:10460000048006C69384048099289D452685A128A8
:104610006DDDB24022852244924441018280011125
:1046200022CC26CA4AC84EC606CEB2842E8433890E
:10463000C500A949631A2401F24062444249B249C3
:104640002685D24405618280034504004D378347A7
:104650000400639437013545593F0504E1BF93F5E4
:10466000F51F4CC1828093D7650093F7F73FAA9757
:1046700088433355B50005898280797193D7450108
:1046800026D24AD052CC5EC662C49394C50006D6E8
:1046900022D44ECE56CA5AC8139757012A89B28BD4
:1046A000368CB18013DAF50149C793FAF77F930787
:1046B000F07F638AFA0C9359D5018E04B3E4990014
:1046C000B7098000B3E9340113143500938A1AC086
:1046D000014B93574C019314CC0013975701B180B1
:1046E00093F5F77F135CFC0171C39307F07F638A36
:1046F000F5101395340093D7DB015D8DB70480006E
:10470000C98C939F3B00138515C0014693172B005E
:10471000D18FFD173947B3468A01B385AA40636438
:10472000F710372700088A071307C74CBA979C432E
:104730008287B3E9A400638209069DC82685EF003D
:104740001035930755FF71476349F702F549130484
:1047500085FFB389F940B3948400B3593901B3E9B3
:104760009900331489009305D0C0B38AA5408DB752
:10477000EF00F03113050502E9B7930485FDB31985
:1047800099000144CDB7B3E9A400638C09002A84E1
:10479000A689930AF07F0D4B2DBF0144814A054B3A
:1047A0000DBF0144930AF07F094B25B7B3EF7401A5
:1047B00063820F069DC82685EF00702DAA8593871A
:1047C00055FF71476349F702F546938F85FF9D8E2C
:1047D0003395F401B3D6DB00B3E4A600B39FFB012D
:1047E0001307D0C03305B7400DB75E85EF00302A00
:1047F00093050502E9B7138585FDB394AB00814F9E
:10480000C5B7B3EF7401638B0F00DE8F1305F07F24
:104810000D46EDBD814401450546CDBD81441305DE
:10482000F07F0946E5B563E634016396992A63642F
:10483000F42B1396F901135714009317F40193D92D
:1048400019003364E6001395840093D88F01B3E810
:10485000A800418133D8A902939E080193DE0E017E
:104860001357040113938F00B3F4A902C28F338648
:104870000E039399040133673701637CC7004697A1
:10488000930FF8FF636717016375C700930FE8FF85
:104890004697118F335EA702420441803377A70207
:1048A00072863388CE034207418F637C07014697A7
:1048B0001306FEFF63671701637507011306EEFF1A
:1048C000469733040741C20F4168B3EFCF00130E80
:1048D000F8FF13D60F0133F7CF01135F0301337EC7
:1048E000C301B303EE02B304C6033307EF02B302FE
:1048F000E6033306970013D70301329763739700DB
:10490000C292135607011696C162FD123378570002
:104910004208B3F353001E986367C400FE84631E0D
:10492000C40263FC07039A9733B7670046973A942B
:104930009384FFFF63E688006391880263EF67005A
:104940006366C400631B860063F907019A9733B757
:10495000670046979384EFFF3A9433880741118CA0
:10496000B3B707011D8CFD5F6387880EB35FA40298
:10497000135708013374A4027E86B387FE034204F2
:10498000598C637CF40046941386FFFF636714011F
:104990006375F4001386EFFF46941D8C3357A40211
:1049A0004208135808013374A402BA87B38EEE028A
:1049B000420433648800637CD40146949307F7FF74
:1049C000636714016375D4019307E7FF46944206B9
:1049D0005D8E93170601C183135706013308EF025A
:1049E0003304D441330FFF02B38EC703330EC70322
:1049F00093D70E01729FFA9763F4C70141673A9803
:104A000013D70701429741687D1833F50701420526
:104A1000B3FE0E0176956366E4006310E41AB28F6C
:104A20001DC94694930FF6FF636114036366E400A7
:104A30006314E418637DA3009317130033B3670076
:104A40009A98930FE6FF46943E836314E400630450
:104A5000650093EF1F009387F53F635BF00A13F740
:104A60007F0001CF13F7FF0011466308C7001386CC
:104A70004F00B33FF601FE94B28F13977400635852
:104A80000700B70700FFFD17FD8C9387054013074C
:104A9000E07F6342F70693DF3F001397D40133674B
:104AA000F70113D53400D2073706F07F3205B25034
:104AB0002254F18F31815D8DFE06B367D50092548B
:104AC0000259F249624AD24A424BB24B224C3A85D1
:104AD000BE8545618280FD158147B5B3D286CE84FF
:104AE000A28F5A868D47630BF60A8547630FF60A35
:104AF0008947E312F6F6014501479307F07F65B752
:104B0000E286CDB7B7040800814F81460D46D9BF74
:104B100005451D8D130780036349A7087D47634939
:104B2000A7049385E541B397B40033D7AF00B3959D
:104B3000BF00D98FB335B000CD8F33D5A40013F7A4
:104B4000770001CF13F7F70011466308C7001387FA
:104B50004700B337F7003E95BA87131785006349BE
:104B600007041317D5018D835D8F0D81814725BF04
:104B70000557B307F74013060002B3D7F400014707
:104B80006306C5009385E5433397B400B36FF7011F
:104B9000B33FF001B3E7F701014555B7370508000A
:104BA00001479307F07F8146FDBD014501477DBF69
:104BB000014501478547C5BD7E86B28F59BD370780
:104BC00010007D1713D84501B378B700AA872A8350
:104BD0001378F87F13D5F501930EF07F93D5460136
:104BE000758F328E93F5F57FFD826318D801B3EE91
:104BF000F80063840E06094582806396D501B36E82
:104C0000C700E39A0EFE631C0804B3E7F80093B7ED
:104C1000170099E1598E0DCE81EB6314D50063D94D
:104C200005010DC57D5582807D5591C636858280F2
:104C30006354B80065D98280E36517FF639CE80080
:104C4000E3616EFEE368C3FF014582800545828013
:104C5000E5FFC1BFE3E0E8FEC5BFE38205FBD5FD8C
:104C600081474DBF797193D7450122D426D24ECECC
:104C700052CC56CA9394C50006D64AD05AC85EC6CE
:104C8000139757012A84B289B68AB18013DAF501E5
:104C900059C313FBF77F9307F07F6304FB0C935713
:104CA000D5018E04DD8CB7078000DD8C131935002B
:104CB000130B1BC0814B93D74A011394CA0013975F
:104CC0005701318013F5F77F93DAFA014DCF93073F
:104CD000F07F6300F51093D7D9010E045D8CB70700
:104CE00080005D8C130515C093973900014793969A
:104CF0002B00D98E5A95FD16394833465A01930533
:104D000015006369D80E372500088A0613058550FB
:104D1000AA969442828633E9A400630D090485C8EB
:104D20002685B523130755FFF14763C6E702F5470C
:104D3000130985FF998FB3942401B357F400DD8CD8
:104D400033192401130BD0C0330BAB40A5B781231B
:104D500013050502C1BF930485FDB31494000149F6
:104D6000D5B733E9A400630B09002A89130BF07F40
:104D70008D4B91B78144014B854B35BF8144130B5B
:104D8000F07F894B0DBFB3673401A1CF05C82285E1
:104D9000FD29930655FFF14763C7D702754793076F
:104DA00085FF158F3314F40033D7E900598CB3977E
:104DB000F9001307D0C03305A7400DBF4E85C129A8
:104DC00013050502F9B7130485FD33948900814763
:104DD000CDB7B367340191CBCE871305F07F0D4774
:104DE00039B701440145054719B701441305F07F60
:104DF0000947F5BD416F1307FFFF9356090113D310
:104E000007013379E900F98FB30823033308F90266
:104E1000B38FF602B38EF80193580801F698338EDB
:104E2000660263F3F8017A9E93D20801B3F8E800B2
:104E30003378E800135F0401C208798CC298338785
:104E400086023308890233092F03B30EE900135990
:104E500008017699B386E6036374E9004167BA9660
:104E6000935E0901B69EC166938FF6FF3379F9010F
:104E70003378F80113D704014209B3F4F401B38382
:104E800097024299CA9233089302B307F702B30F0D
:104E9000E3023303F80013D803011A986373F80090
:104EA000B69F93570801C166BE9F9387F6FF33787C
:104EB000F800B3F7F300B303940242083E983304BA
:104EC0008702B3049F023303EF02A29413D70301B6
:104ED000BA9463F384003693C167FD17B3F6F40008
:104EE000C206B3F7F300169EBE9633392E01F6962E
:104EF00033872601429E33380E01330FF701B30288
:104F00000F01B3B6D60133372701558F33B80201ED
:104F1000C180B33FFF01269733E80F0193179E002E
:104F200042971A97B3E717012607B337F000135ECD
:104F30007E0113D47201B3E7C701A602931677006E
:104F4000598CB3E7570063DA060A13D71700858B2D
:104F5000D98F1317F401D98F05809386F53F6350DD
:104F6000D00A13F7770001CF13F7F7001145630854
:104F7000A70013874700B337F7003E94BA8713178B
:104F8000740063580700370700FF7D17798C9386FC
:104F900005401307E07F634ED70E13D737009317F2
:104FA000D401D98F0D80139746013204B706F07FE4
:104FB000758F3180598C7E06B2503367C4002254FD
:104FC00092540259F249624AD24A424BB24B3E8550
:104FD000BA854561828052862684CA875E87894663
:104FE0006309D70A8D46630FD7088546E317D7F6BE
:104FF000014481479DA05686DDB7AA85B9BF054506
:10500000158D13078003E345A7FE7D476349A70479
:105010009385E5413317B400B3D6A700B397B70023
:10502000558FB337F000D98F3354A40013F77700AE
:1050300001CF13F7F70091466308D70013874700A5
:10504000B337F7003E94BA87131784006348070408
:105050001317D4018D83D98F0D808146A9B70557C9
:10506000158F130800023357E400814663060501DB
:105070009385E543B316B400D58FB337F000D98FCD
:1050800001446DB73704080081479306F07F01465D
:1050900019BF014481479306F07F31B7014481472E
:1050A000854611B7411122C406C62A8421C1C522F2
:1050B0001307E041A947098F63C4A702AD47898F51
:1050C0005505B357F4003314A400B2402285B2074B
:1050D00022445207B183B366F700B685410182804E
:1050E000930755FFB317F4000144C5B78147014743
:1050F000E9BF011106CE22CC26CA4AC84EC652C408
:10510000B367B500638707122A842E89AE84ADC1C8
:105110002E85B52AAA89130AE043330A3A41930738
:10512000304363C147072D47A287635337031307F3
:10513000A002634337059304B002138759FFB38479
:105140003441B3549400B315E900CD8CB317E40097
:10515000F24062449395C400520AB1813367BA00A9
:10516000D2444249B249224A3E85BA8505618280CD
:10517000392A9309050245B7938559FDB314B40044
:105180008147F9B79307604363D3470313868903C5
:105190002285CA85C1284D8D2146B334A000CA8519
:1051A000228533063641512833E4A4002E89214755
:1051B000A287CA8563543703130770026345370714
:1051C000138789FFB315E9001309800233093941B8
:1051D00033592401B365B900B317E400370780FFE2
:1051E0007D17F98D13F7770001CF13F7F70091467C
:1051F0006308D70013874700B337F700BE95BA8717
:1052000013978500635A0700370780FF7D17130A3D
:10521000F043F98D330A3A418D831395D501C98F37
:1052200093D4350035B7938589FDB315B400814714
:1052300075B781448147014A21BF01CE930700021F
:10524000918F6349F000130506FE014733D5A50091
:10525000BA85828033D7C5003355C500B395F500B4
:105260004D8DFDB701CE93070002918F6349F00089
:10527000930506FE0147B315B5003A8582803317C2
:10528000C500B395C5003355F500C98DFDB7C1679D
:105290006376F5029307F00FB3B7A7008E073727A1
:1052A0000008930600029D8E3355F500930747547E
:1052B0003E95034505003385A640828037070001EF
:0A52C000C147E36EE5FCE147D9BFEA
:0352CC00131318A1
:0352D000180A0DAC
:0652D400C801BE00380114
:0452DC00F80E0020A8
:1052E000FFFF0000FFFF0000FFFF0000FFFF0000C6
:1052F000FFFF0000FFFF0000FFFF0000FFFF0000B6
:10530000FFFF0000FFFF0000FFFF0000FFFF0000A5
:10531000FFFF0000FFFF0000FFFF0000FFFF000095
:10532000FFFF0000FFFF0000FFFF00000000000083
:1053300000000000FFFF0000FFFF0000FFFF000073
:10534000FFFF0000FFFF0000FFFF0000FFFF000065
:10535000FFFF0000FFFF0000FFFF0000FFFF000055
:10536000FFFF0000FFFF0000FFFF0000FFFF000045
:10537000FFFF0000FFFF0000FFFF0000FFFF000035
:10538000FFFF0000FFFF0000000000000000000021
:1053900000000000FFFF0000FFFF0000FFFF000013
:1053A000FFFF0000FFFF0000FFFF0000FFFF000005
:1053B000FFFF0000FFFF0000FFFF0000FFFF0000F5
:1053C000FFFF0000FFFF0000FFFF0000FFFF0000E5
:1053D000FFFF0000FFFF0000FFFF0000FFFF0000D5
:1053E000FFFF0000FFFF00000000000000000000C1
:1053F00000000000FFFF0000FFFF0000FFFF0000B3
:10540000FFFF0000FFFF0000FFFF0000FFFF0000A4
:10541000FFFF0000FFFF0000FFFF0000FFFF000094
:10542000FFFF0000FFFF0000FFFF0000FFFF000084
:10543000FFFF0000FFFF0000FFFF00000000000072
:1054400000000000FFFF000000000000000000005E
:1054500000000000FFFF0000FFFF00000000000050
:10546000FFFF0000FFFF0000FFFF00000000000042
:1054700000000000FFFF0000FFFF0000FFFF000032
:10548000FFFF0000FFFF0000000000000000000020
:1054900000000000FFFF0000FFFF00000000000010
:1054A00000000000FFFF00000000000000000000FE
:1054B00000000000FFFF0000FFFF000000000000F0
:1054C000FFFF0000FFFF0000FFFF000000000000E2
:1054D00000000000FFFF0000FFFF0000FFFF0000D2
:1054E000FFFF0000FFFF00000000000000000000C0
:1054F00000000000FFFF0000FFFF000000000000B0
:1055000000000000FFFF000000000000000000009D
:1055100000000000FFFF0000FFFF0000000000008F
:10552000FFFF0000FFFF0000FFFF00000000000081
:1055300000000000FFFF000000000000FFFF00006F
:10554000000000000000000000000000000000005B
:1055500000000000FFFF000000000000000000004D
:1055600000000000FFFF000000000000000000003D
:1055700000000000FFFF0000FFFF0000000000002F
:10558000FFFF0000FFFF0000FFFF00000000000021
:1055900000000000FFFF000000000000FFFF00000F
:1055A00000000000000000000000000000000000FB
:1055B00000000000FFFF00000000000000000000ED
:1055C00000000000000000000000000000000000DB
:1055D00000000000FFFF0000FFFF000000000000CF
:1055E0000000000000000000FFFF000000000000BD
:1055F00000000000FFFF000000000000FFFF0000AF
:10560000000000000000000000000000000000009A
:1056100000000000FFFF000000000000FFFF00008E
:10562000000000000000000000000000000000007A
:1056300000000000FFFF0000FFFF0000000000006E
:105640000000000000000000FFFF0000000000005C
:1056500000000000FFFF000000000000FFFF00004E
:10566000000000000000000000000000000000003A
:1056700000000000FFFF000000000000FFFF00002E
:10568000FFFF0000FFFF000000000000000000001E
:1056900000000000FFFF0000FFFF0000000000000E
:1056A0000000000000000000FFFF000000000000FC
:1056B00000000000FFFF000000000000FFFF0000EE
:1056C000FFFF0000000000000000000000000000DC
:1056D00000000000FFFF000000000000FFFF0000CE
:1056E000FFFF0000FFFF00000000000000000000BE
:1056F00000000000000000000000000000000000AA
:105700000000000000000000FFFF0000000000009B
:10571000000000000000000000000000FFFF00008B
:10572000FFFF0000FFFF000000000000000000007D
:10573000000000000000000000000000FFFF00006B
:10574000FFFF0000FFFF000000000000000000005D
:1057500000000000FFFF0000FFFF0000FFFF00004F
:105760000000000000000000000000000000000039
:1057700000000000FFFF0000FFFF0000FFFF00002F
:10578000FFFF0000FFFF000000000000000000001D
:105790000000000000000000FFFF0000FFFF00000D
:1057A000FFFF0000FFFF00000000000000000000FD
:1057B00000000000FFFF0000FFFF0000FFFF0000EF
:1057C000FFFF0000000000000000000000000000DB
:1057D00000000000FFFF0000FFFF0000FFFF0000CF
:1057E000FFFF0000FFFF00000000000000000000BD
:1057F00000000000FFFF0000FFFF0000FFFF0000AF
:10580000FFFF0000FFFF000000000000000000009C
:1058100000000000FFFF0000FFFF0000FFFF00008E
:10582000FFFF0000FFFF0000FFFF0000000000007E
:1058300000000000FFFF0000FFFF0000FFFF00006E
:10584000FFFF0000FFFF000000000000000000005C
:1058500000000000FFFF0000FFFF0000FFFF00004E
:10586000FFFF0000FFFF000000000000000000003C
:1058700000000000FFFF0000FFFF0000FFFF00002E
:10588000FFFF0000FFFF0000FFFF0000000000001E
:1058900000000000FFFF0000FFFF0000FFFF00000E
:1058A000FFFF0000FFFF00000000000000000000FC
:1058B00000000000FFFF0000FFFF0000FFFF0000EE
:1058C000FFFF0000FFFF00000000000000000000DC
:1058D00000000000FFFF0000FFFF0000FFFF0000CE
:1058E000FFFF0000FFFF0000FFFF000000000000BE
:1058F00000000000FFFF0000FFFF0000FFFF0000AE
:10590000FFFF0000FFFF000000000000000000009B
:1059100000000000FFFF0000FFFF0000FFFF00008D
:10592000FFFF0000FFFF000000000000000000007B
:1059300000000000FFFF0000FFFF0000FFFF00006D
:10594000FFFF0000FFFF0000FFFF0000000000005D
:1059500000000000FFFF0000FFFF0000FFFF00004D
:10596000FFFF0000FFFF000000000000000000003B
:1059700000000000FFFF0000FFFF0000FFFF00002D
:10598000FFFF0000FFFF000000000000000000001B
:1059900000000000FFFF0000FFFF0000FFFF00000D
:1059A000FFFF0000FFFF00000000000000000000FB
:1059B00000000000FFFF0000FFFF0000FFFF0000ED
:1059C00000000000FFFF00000000000000000000D9
:1059D00000000000FFFF0000FFFF000000000000CB
:1059E000FFFF0000FFFF00000000000000000000BB
:1059F0000000000000000000FFFF000000000000A9
:105A0000FFFF0000FFFF0000FFFF0000FFFF00009E
:105A1000000000000000000000000000FFFF000088
:105A2000FFFF0000FFFF0000FFFF0000FFFF00007E
:105A3000FFFF0000FFFF000000000000000000006A
:105A400000000000FFFF0000FFFF0000FFFF00005C
:105A5000FFFF0000FFFF0000FFFF0000FFFF00004E
:105A6000000000000000000000000000FFFF000038
:105A7000FFFF0000FFFF0000FFFF0000FFFF00002E
:105A8000FFFF0000FFFF000000000000000000001A
:105A900000000000FFFF0000FFFF0000FFFF00000C
:105AA000FFFF0000FFFF0000FFFF0000FFFF0000FE
:105AB000000000000000000000000000FFFF0000E8
:105AC000FFFF0000FFFF0000FFFF0000FFFF0000DE
:105AD000FFFF0000FFFF00000000000000000000CA
